:040000000C946D00EF
:040040000C94B30069
:040048000C941901FA
:14008C000000000000000000000080BFCDCC4C3E0000003FBF
:1400A00000E0FF440000803F00C07F44000000400000004463
:1400B4000080FF4300000040FFFFFF7F00000000008000003A
:1400C80000003F065B4F666D7D077F6F777C395E7971CFEFBE
:1400DC00D0E1CDBFDEBFC051D0400AEA08830024E4E1F1E0DC
:1400F00011E0E832F10711F00192FBCF0083E6ECF0E0A0E0F6
:14010400B1E010E0EA3DF10721F0C89531960D92F9CF0E9409
:14011800D103FFCF22242BBA8FEF8ABB28BA80E687BB80EF4A
:14012C0085BB84BB8CE082BB88E081BB83EC83B982EF82B99C
:14014000209262002092610020926500209264000895222474
:1401540023BE20BE84E682BF8CE981BF87E083BF08958A9315
:140168009A938FB78A9384E682BF8091160190911701019650
:14017C00909317018093160189918FBF99918991189522246B
:140190002EBC88EF8DBD81E08CBD87E08BBD8FEF8ABD87E02B
:1401A40089BD8FEF88BD87E0809379008FEF8093780087E0DB
:1401B80087BD8FEF86BD82EA8FBD8AE18EBD0895222420922B
:1401CC008A0088EF8093890081E08093880087E08093870085
:1401E0008FEF8093860087E0809385008FEF8093840087E079
:1401F400809383008FEF8093820087E0809381008FEF8093C2
:1402080080008AE280938B008AE180938A00089522242AB88B
:14021C002BB886E08093950087E689B92092900088E98AB938
:1402300008952A923A922FB62A922CB0332430920301209249
:14024400020129902FBE399029901895222420929A0020928A
:140258009B0086E080939D0087E6809399002092980088E115
:14026C0080939A000895222426B880E487B980E888B987E854
:1402800086B90895F89422242CBE20926D0046DF60DF7DDFF3
:1402940099DFC0DFDBDFEBDF222425BE20926A002ABE29BEA7
:1402A80081E087BF20927D007894089586E090E090931501B4
:1402BC00809314012224332430921701209216010895000029
:1402D00000000000000000000000000000000000000000001A
:1402E400000000000000000008950E94C904B801442755275A
:1402F80003C0E9DF4F5F5F4F46175707D0F30E94BA04089590
:14030C000E94C904B8014427552705C008EE13E0E8DF4F5FAB
:140320005F4F46175707C0F30E94BA0408950E94C5046901DB
:14033400B801AA24A3946FC085B38F7085BB8FEF8BBB4A2D16
:1403480055274130E0E05E0769F04230E0E05E0759F04330E3
:14035C00E0E05E0749F04430E0E05E0739F007C0AF9A05C098
:14037000AE9A03C0AD9A01C0AC9A8A2D813011F0823009F507
:1403840096013695279536952795369527953695279500E1D1
:1403980010E00E94AA04F601E01BF10B84E091E0E80FF91F3F
:1403AC00208020942BBA16013694279436942794369427945E
:1403C0003694279461018A2D833011F0843009F59B013695BE
:1403D400279536952795369527953695279500E110E00E9451
:1403E800AA04FB01E01BF10B84E091E0E80FF91F2080209428
:1403FC002BBA1B0136942794369427943694279436942794D8
:14041000B10101E010E07ADFA3948A2D853008F48DCF0E945F
:14042400C00408950E94CB04A801249708EB10E00E94EB041A
:140438003A932A931A930A938A01169507950E9460053A9336
:14044C002A931A930A930E94A9068A01017010700E946005C1
:140460003A932A931A930A930E94BD05FE0100831183228395
:140474003383FE0120803180428053805A924A923A922A9289
:1404880004EB10E00E94EB043A932A931A930A930E94C205B3
:14049C0000EB10E00E94EB043A932A931A930A930E941E0646
:1404B000FE0100831183228333830CEA10E00E94EB043A9383
:1404C4002A931A930A93FE0124803580468057805A924A9260
:1404D8003A922A920E94AC0624960E94CE0408950E94A5041E
:1404EC000E94CB04249708EA10E00E94EB043A932A931A9326
:140500000A93FE0122843384448455845A924A923A922A92FD
:1405140004EA10E00E94EB043A932A931A930A930E94BA052F
:140528000E94AC06FE01008311832283338300EA10E00E947E
:14053C00EB043A932A931A930A93FE012480358046805780F3
:140550005A924A923A922A920E9478064CF400EA10E00E946B
:14056400EB04FE010083118322833383FE010081118122816E
:1405780033810E941805A80124960E94CE04249608950CB909
:14058C0008950E94C70464970CE910E00E94EB04FE0104835A
:1405A00015832683378308E910E00E94EB04FE01008B118BB4
:1405B400228B338B369A349BFECF209100013091010102E005
:1405C80010E00E94AA04F80180E291E0E80FF91F24B03324D9
:1405DC0031822082209100013091010102E010E00E94AA041F
:1405F00080E291E01801280E391E45B05524542C4424F10136
:1406040060807180640C751C718260822091000130910101C6
:1406180002E010E00E94AA04F80180E291E0E80FF91FA080B1
:14062C00B180209100013091010102E010E00E94AA04F801F9
:1406400088E191E0E80FF91F150135942794359427943182EC
:140654002082209100013091010102E010E00E94AA04F80160
:1406680080E291E0E80FF91F00811181D9DEFE0104871587AC
:14067C0026873787FE0124803580468057805A924A923A9276
:140690002A92FE0120883188428853885A924A923A922A9245
:1406A4000E94C505FE010087118722873387FE0120883188F5
:1406B800428853885A924A923A922A92FE012484358446840F
:1406CC0057845A924A923A922A920E94AC06FE010083118385
:1406E00022833383FE0120803180428053805A924A923A9232
:1406F4002A9204E910E00E94EB043A932A931A930A930E9452
:1407080078064CF404E910E00E94EB04FE01008311832283F6
:14071C003383FE0120803180428053805A924A923A922A92DE
:1407300004EA10E00E94EB043A932A931A930A930E94780652
:140744004CF004EA10E00E94EB04FE01008311832283338385
:14075800FE010081118122813381C2DE58011501232C33246F
:14076C0027FC30942BBC0ABD64960E94BD040895002711278B
:14078000B49901C00860B79901C004602090630023FC01C087
:1407940002602090630024FC01C00160089528978CE890E05A
:1407A800FE0108E010E0FA93EA939A938A930E94FF04442702
:1407BC005527AA24BB24662777275EDD75DDBCC09A010091A0
:1407D000020110910301ABDD222433243092010120920001D1
:1407E400CBDFB8018FEF93E09F838E839D838C839B838A8320
:1407F8009983888380911601909117018233E0E09E074CF00F
:14080C0022243324309217012092160181E090E05C016130D9
:14082000E0E07E0709F047C0C5018130E0E09E0709F03CC0AE
:14083400809114019091150101969093150180931401A3DEDA
:14084800209100013091010102E010E00E94AA04F80188E1A3
:14085C0091E0E80FF91FE0808FE090E020901401309015012E
:140870008215930534F42224332430921501209214018091D0
:140884001401909115010196C0901401D0901501CC0CDD1CD1
:14089800CC0CDD1CCC0CDD1CCC0CDD1CC80ED91EA601EC2C4D
:1408AC008FEF95E09983888314C08FEF93E0998388832224EC
:1408C000332430921501209214011C01232C332427FC309484
:1408D4002BBC8ABDEE244EEF50E02A803B80232C332427FC35
:1408E800309429BC2A803B8028BC2C803D80232C332427FCD8
:1408FC003094209285002C803D80209284002E803F80232C92
:14091000332427FC3094209283002E803F8020928200C501F9
:140924008130E0E09E0731F4AA24BB245D9BFECF0E2D29DED0
:140938009A010091020110910301F5DC43CF289608953A93CC
:14094C002A931A930A9308950A921A928A939A93029FC001FF
:14096000129F900D039F900D8C019991899119900990089546
:14097400E2E00C94CF04E4E00C94CF04E8E00C94CF04FA923C
:14098800EA92DA92CA92BA92AA927A936A935A934A9308951E
:14099C00E1E049915991E0FD089569917991E1FD0895A99090
:1409B000B990E2FD0895C990D990E3FD0895E990F990089590
:1409C40000951095209530950F5F1F4F2F4F3F4F0895EA9369
:1409D800FA930A92E02FF12FC895002D3196C895102D319601
:1409EC00C895202D3196C895302D0990F991E9910895AA9355
:140A0000BA93EA93FA930A92AF81B885ED81FE81003001075D
:140A140031F0C8950D92319601501040F7CF0990F991E991E6
:140A2800B991A991249608950E94F60614D0022F132F87FD66
:140A3C0002C00C94F906109501951F4F0C94F9060E94F6065F
:140A500008D087FF02C00E94E2040C94F906BEE001C0BEE14D
:140A64000E94FC0669F0B31B09F072F4882322F010E00CEBB0
:140A78000C94EB0410E002EC0C94EB0410E000EC0C94EB0403
:140A8C003395D2F330E0B85052F4B85F322F212F102F00E87C
:140AA00006C0012F122F20E0B850B830D0F7BB2331F036958A
:140AB400279517950795BA95D1F70895222717FD209533270A
:140AC80027FD30950E94F60602D00C94F906882733231AF40F
:140ADC000E94E2048095B02FB12BB22BB32B11F40C94120735
:140AF000B6E105C0B39536952795179507953323C9F7222324
:140B040049F4B850212F102F00E0F9CFBA95000F111F221F92
:140B1800DAF73B2F0C943C07DA92EA92FA928A932A923A9292
:140B2C004A929A93AA93BA930895B991A99199914990399035
:140B400029908991F990E990D99008952A843B844C849D8567
:140B540008950E851F85288939890895EADF0F920FB62896BC
:140B68000FBE0F900895D8DFF2DFECCF02D00C94A5040E9470
:140B7C00B70512D00C94B00502D00C94A5040E94B70509D020
:140B90000C94B0058A2F392F242D132D022D0C943C07905850
:140BA4000E942A079038C9F3303891F3B32FB91BA3F32AF094
:140BB80039F402151305240518F40E941E07F4CFB83118F01D
:140BCC00222433244424B83028F0232C342C4424B850F9CF29
:140BE000BB2329F0469437942794BA95D9F7B82FBA274AF089
:140BF40018D098F62795179507953F5F73F60C940B0713D0D7
:140C080011F40C94120710F40E94050722231AF2000F111FD8
:140C1C00221F3150CBF70C940B07020D131D241D0895021956
:140C300013092409089502D00C94A5040E94B70523D00C94BE
:140C4400B005BA93DD24EE24FF24B8E102151305240528F05B
:140C5800021913092409089401C08894DD1CEE1CFF1C000F7E
:140C6C00111F221FBA9571F70D2D1E2D2F2DB991089522243E
:140C80003324B0E24B2E91E4992329F1332351F10E942A0748
:140C940039F18A270894390BEBF046943794279426951795EF
:140CA8000795CDDF22232AF0000F111F221F31507BF0B02F46
:140CBC00B69548F000233AF411232AF4B1E00B0FBB271B1F37
:140CD0002B1F0C943C0706C0BFE73B2F2B2B0FEF1FEF08950E
:140CE4000027112722273327882708950E94B70502D00C94DE
:140CF800B00502D0BB230895332382F0992342F0391740F0B0
:140D0C0029F402151305240518F021F0B1E00895BFEF0895CC
:140D2000BB2708959923D2F73917B0F3B9F7021513052405C0
:140D340088F3A1F3F1CFBFE73B2F2B2B0FEF1FEF08950027A6
:140D48001127222733278827089502D00C94A5040E94B705F7
:140D5C000F92CF9204D0CF900F900C94B0050E942A0759F33B
:140D7000903849F38A270894391FFBF20ED02F2D1E2D0D2D1A
:140D840022232AF03A95CC0C001F111F221F3F5F93F20C9402
:140D98003C07229DC02CD12C249DE02CF12C129DC10CDB1EFD
:140DAC00EB1EFB1E039DC10CDB1EEB1EFB1E139DC00CD11C20
:140DC000EB1EFB1E049DC00CD11CEB1EFB1E239DD00CE11CE8
:140DD400FB1E149DD00CE11CFB1ECC2022F48894DB1EEB1E2F
:140DE800FB1E08958A93BA930895B99189910895832F80788F
:140DFC00220F331F305808942795303808951095209501958B
:140E10001F4F2F4F0895BFE73B2F2B2BBFEF0B2F1B2F089510
:140E2400002711272227332788270895932F202E312E422E8D
:140E3800A82F08952A923A924A929A93AA93F4DF89913991AD
:140E4C002991199109910895832FB0E8220F331F3B27BB0FFE
:140E600027958078A92FB0E8440C991F9B27BB0F4794A078D3
:140E740030380895220FB0E8B327880FB79527953B2F08951C
:00000001FF
