:040000000C9450000C
:040040000C94980084
:040048000C94FE0016
:14006000000080BFCDCC4C3E0000003F00E0FF440000803F09
:1400740000C07F4400000040000000440080FF4300000000AF
:140088003F065B4F666D7D077F6F777C395E797100000000BC
:14009C0000000000CFEFDFE0CDBFDEBFC058D0400AEA088303
:1400B0000024ECE7F0E010E0E039F10711F00192FBCF008393
:1400C400E4E8F0E0A0E6B0E010E000E00BBFE03AF10721F0B9
:1400D800C89531960D92F9CF0E944103FFCF22242BBA8FEF2C
:1400EC008ABB28BA80E687BB80EF85BB84BB8CE082BB88E032
:1401000081BB83EC83B982EF82B9209262002092610020927F
:140114006500209264000895222423BE20BE84E682BF8CE99A
:1401280081BF87E083BF08958A939A938FB78A9384E682BFE5
:14013C0080917E0090917F00019690937F0080937E0089919C
:140150008FBF99918991189522242EBC88EF8DBD81E08CBDC1
:1401640087E08BBD8FEF8ABD87E089BD8FEF88BD87E0809329
:1401780079008FEF8093780087E087BD8FEF86BD82EA8FBDCD
:14018C008AE18EBD0895222420928A0088EF8093890081E016
:1401A0008093880087E0809387008FEF8093860087E080931E
:1401B40085008FEF8093840087E0809383008FEF809382008D
:1401C80087E0809381008FEF809380008AE280938B008AE1A2
:1401DC0080938A00089522242AB82BB886E08093950087E64F
:1401F00089B92092900088E98AB908952A923A922FB62A92FD
:140204002CB03324309263002092620029902FBE3990299052
:140218001895222420929A0020929B0086E080939D0087E6C3
:14022C00809399002092980088E180939A000895222426B8F1
:1402400080E487B980E888B987E886B90895F89422242CBE56
:1402540020926D0046DF60DF7DDF99DFC0DFDBDFEBDF2224D6
:1402680025BE20926A002ABE29BE81E087BF20927D007894D2
:14027C00089586E090E090937D0080937C002224332430926D
:140290007F0020927E0008950000000000000000000000000E
:1402A4000000000000000000000000000000000000000895A9
:1402B8000E94380458014427552703C0E9DF4F5F5F4F4A15CE
:1402CC005B05D0F30C943D040E94380458014427552705C037
:1402E00008EE13E0E9DF4F5F5F4F4A155B05C0F30C943D04AA
:1402F4000E9442046901580141E069C085B38F7085BB8FEF0C
:140308008BBB642F77276130E0E07E0769F06230E0E07E0764
:14031C0059F06330E0E07E0749F06430E0E07E0739F007C0AA
:14033000AF9A05C0AE9A03C0AD9A01C0AC9A413011F042306E
:14034400F9F496013695279536952795369527953695279505
:1403580000E110E00E942804F601E01BF10B84E690E0E80F33
:14036C00F91F208020942BBAD694C794D694C794D694C794DD
:14038000D694C794433011F04430F9F49501369527953695E7
:140394002795369527953695279500E110E00E942804F501F6
:1403A800E01BF10B84E690E0E80FF91F208020942BBAB694DE
:1403BC00A794B694A794B694A794B694A79401E010E082DF31
:1403D0004395453008F494CF0C944B04AA92BA9258012497E2
:1403E40085010E943405088319832A833B83288039804A80E7
:1403F8005B8000E810E00E9414043A932A931A930A9381012E
:14040C0092010E94F704180129010CE710E00E9414043A93FF
:140420002A931A930A93810192010E946105088319832A83D0
:140434003B8308E710E00E941404CE019A938A930E94D106CB
:140448002496B990A99008950E940F04AA92BA92249704E7E4
:14045C0010E00E941404180129016E807F808884998400E7A2
:1404700010E00E9414043A932A931A930A93830194010E943F
:14048400DF04810192010E94DB06088319832A833B83CE0188
:140498000CE610E00E9414049A938A930E94F30644F40CE6A5
:1404AC0010E00E941404088319832A833B83088119812A8132
:1404C0003B810E94020558012496B990A990249608950CB912
:1404D4000895AA92BA92649708E610E00E9414040C831D832D
:1404E8002E833F8304E610E00E941404088B198B2A8B3B8B47
:1404FC00369A349BFECF88E890E0E0916000F0916100EE0FF0
:14051000FF1FE80FF91F24B03324318220822090600030905A
:140524006100220C331C280E391E310125B03324322C222456
:14053800F30140805180420C531C51824082E0916000F09186
:14054C006100EE0FFF1FE80FF91FA080B18080E890E0E09176
:140560006000F0916100EE0FFF1FE80FF91F15013594279481
:14057400359427943182208288E890E0E0916000F091610007
:14058800EE0FFF1FE80FF91F0081118123DF0C871D872E8734
:14059C003F870C811D812E813F81CE010C969A938A930E948E
:1405B000ED04088719872A873B87088919892A893B89CE012B
:1405C40008969A938A930E94D106088319832A833B83288088
:1405D80039804A805B8000E610E00E9414043A932A931A93EA
:1405EC000A93810192010E94FE0644F400E610E00E941404DB
:14060000088319832A833B83288039804A805B8000E710E077
:140614000E9414043A932A931A930A93810192010E94FE0689
:1406280044F000E710E00E941404088319832A833B830881DE
:14063C0019812A813B8106DF58011501232C332427FC3094C8
:140650002BBC0ABD6496B990A990089500271127B49901C062
:140664000860B79901C004602090630023FC01C002602090A0
:14067800630024FC01C001600895289784E790E0FE0108E0AB
:14068C0010E0FA93EA939A938A930E945D044427552766279F
:1406A0007727CC24DD24D3DDEADDB6C09A010091620010919B
:1406B40063001EDE222433243092610020926000CBDF6801EE
:1406C8008FEF93E09F838E839D838C839B838A839983888379
:1406DC0080917E0090917F008233E0E09E0744F022243324F0
:1406F00030927F0020927E0061E070E0C6018130E0E09E0717
:1407040009F042C06130E0E07E0709F038C080917C00909171
:140718007D00019690937D0080937C00D8DE80E890E0E0918B
:14072C006000F0916100EE0FFF1FE80FF91FA080B1808FE08D
:1407400090E020907C0030907D008215930534F422243324D8
:1407540030927D0020927C0020907C0030907D00C101019662
:140768006101CC0CDD1CCC0CDD1CCC0CDD1CCC0CDD1CC80E01
:14077C00D91EA601AC2C8FEF95E09983888314C08FEF93E014
:14079000998388832224332430927D0020927C001C01232CB8
:1407A400332427FC30942BBC8ABDAA244EEF50E02A803B8035
:1407B800232C332427FC309429BC2A803B8028BC2C803D8009
:1407CC00232C332427FC3094209285002C803D8020928400B6
:1407E0002E803F80232C332427FC3094209283002E803F8069
:1407F400209282006130E0E07E0731F4662777275D9BFECFD2
:140808000A2D63DE9A0100916200109163006EDD49CF2896B1
:14081C0008953A932A931A930A930895EA93FA930A92E02F05
:14083000F12FD895002D3196D895102D3196D895202D319641
:14084400D895302D0990F991E99108950A921A928A939A930A
:14085800029FC001129F900D039F900D8C0199918991199023
:14086C00099008955A934A93BA92AA920895A990B9904991F7
:14088000599108957A936A935A934A93DA92CA92BA92AA92B9
:140894000895A990B990C990D990499159916991799108950A
:1408A80000951095209530950F5F1F4F2F4F3F4F0895AA93C6
:1408BC00BA93EA93FA930A92AF81B885ED81FE8100300107A3
:1408D00029F001900D9201501040F8CF0990F991E991B9917C
:1408E400A99124960895689401C0E8940E9460060E94F20595
:1408F80009F448C0E62CD52CC42CB32EA22E912E802E008145
:14090C001181228133810E94F20509F444C0842D952D8C193C
:140920009D09B9F072F49095809501964C2C5D2C8831B8F5D6
:1409340035952795179507950197D1F708C0883118F5B594AA
:14094800A794979487940197D1F766242EF0080D191D2A1D80
:14095C003B1D09C0801A910AA20AB30A082D192D2A2D3B2D8E
:14097000332322F40E94540480E8682E0E941B0602C00E94E8
:1409840050060E946F0608950081118122813381C6F70E948C
:14099800FA05A9F380E83827F2CF082D192D2A2D3B2D4C2C76
:1409AC005D2C6E2C33233AF70E94540480E8682EE2CFFA9357
:1409C000EA93EC2FFD2F32960E947704E991F9913B832A830B
:1409D400198308830895FA93EA93EA81FB810E947504E991C5
:1409E800F99122960895FA93EA93EC2FFD2F32960E947504E8
:1409FC00E991F991249608954A925A926A928A930E94020601
:140A100011F15520E2F08FE14816C0F487E14816D1F058F434
:140A2400419489EE481A05C035952795179507954A94D1F7D7
:140A38000EC087E1481A000F111F221F331F4A94D1F705C0D5
:140A4C003FE7232F132F032F04C0662011F00E94540489914B
:140A60006990599049900895689401C0E8942227332746F018
:140A740017FD209517FD309503C0689401C0E8944A925A9208
:140A88006A928A9387E1482E5524662436F0332322F40E942C
:140A9C00540480E8682E0E941B0689916990599049900895BB
:140AB000FA93EA93EA81FB8127D0E991F99122960895FA9364
:140AC400EA93EC2FFD2F32961DD0E991F99124960895FA93BD
:140AD800EA93EA81FB8114D0E991F991398328831A930A930D
:140AEC000895FA93EA93EC2FFD2F329607D0E991F9913B83A7
:140B00002A831983088308950A921A922A923A920E94600698
:140B14003A932A931A930A9300811181228133810E940206E5
:140B280009F457C0E62CD52CC42CB32EA22E912E802E0991EA
:140B3C001991299139910E940206A1F16E244C185D0880E878
:140B5000481653060CF033C081E848168FEF58060CF436C052
:140B640080E23324232E122E012E302F222711270027269443
:140B78001794079437952795000F111F221F331F001C111C80
:140B8C00221C331C28F0081819082A083B0804C0080C191CED
:140BA0002A1C3B1C0AF001608A9551F70E941B060E946F0608
:140BB400399029901990099008950FEF102F2FE73FE76620CD
:140BC80099F30E945404F0CF0027102F202F302FEBCF09916C
:140BDC00199129913991EDCF0FD029F0662011F00E945404A2
:140BF00098940895002329F4112319F4222309F43323089572
:140C0400F7DF99F08A93632E80E86822220F331F432E8FE773
:140C1800481A55248827580A269530E8232B3327899198941B
:140C2C0008954424552466240895DEDF09F40895AA93BA932E
:140C4000D2019A938A938EE790E0332349F0369527951795DC
:140C54000795A817B907CCF41196F5CF809590950196222330
:140C6800BAF0000F111F221FA817B90714F01197F6CF002737
:140C7C00112722273327899199912D01B991A991089533279C
:140C90000FEF102F2FE7322F899199912D0102C0AA93BA93DE
:140CA400A7DF49F0D201A158BF4F2D01342D220F369527955C
:140CB8003629B991A99108954A925A926A927A928A929A9290
:140CCC00AA92BA92CA92DA92EA92FA928A939A9308959991AB
:140CE0008991F990E990D990C990B990A99099908990799055
:140CF40069905990499008950E946006AA93BA930E94020658
:140D0800E1F1E62CD52CC42CB32EA22E912E802E00811181D1
:140D1C00228133810E94020671F16E244C0C5D1C80E8481637
:140D3000530664F581E848168FEF58066CF1A29EB12DA02D12
:140D4400919E912D802DA09E800D911DA31FB31F829E800D47
:140D5800911DA31FB31F929E900DA11DB31FA19E900DA11D4E
:140D6C00B31F2B2F1A2F092F880F001F111F221F331F0E94AB
:140D80001B06B991A9910E946F0608950FEF102F2FE78FE73D
:140D9400482EF5CF0027102F202F302FF0CFFA93EA93EA81C9
:140DA800FB810E947E06E991F99122960895FA93EA93EC2F17
:140DBC00FD2F32960E947E06E991F991249608950E94750493
:140DD00033233AF00E94FA0511F001E00895002708950FEFAD
:140DE4000895FA93EA93EA81FB810E94E606E991F991229623
:140DF80000230895FA93EA93EC2FFD2F32960E94E606E99106
:080E0C00F991249600230895DA
:00000001FF
