:040000000C946A00F2
:040040000C94AF006D
:14008C000000000000000000000080BFCDCC4C3E0000003FBF
:1400A00000E0FF440000803F00C07F44000000440080FF43E1
:1400B40000000040FFFFFF7F00000000008000003F065B4F0D
:1400C800666D7D077F6F777C395E7971CFEFD0E1CDBFDEBFD3
:1400DC00C058D0400AEA08830024E2E1F1E011E0E832F107AE
:1400F00011F00192FBCF0083E2ECF0E0A0E0B1E010E0E43D5B
:14010400F10721F0C89531960D92F9CF5CD2FFCF22242BBA2C
:140118008FEF8ABB28BA80E687BB80EF85BB84BB8CE082BBEF
:14012C0088E081BB83EC83B982EF82B920926200209261009D
:1401400020926500209264000895222423BE20BE84E682BF31
:140154008CE981BF87E083BF08958A939A938FB78A9384E685
:1401680082BF0E9479060196909317018093160181E090E054
:14017C00909313018093120189918FBF999189911895222473
:140190002EBC88EF8DBD81E08CBD87E08BBD8FEF8ABD87E02B
:1401A40089BD8FEF88BD87E0809379008FEF8093780087E0DB
:1401B80087BD8FEF86BD82EA8FBD8AE18EBD0895222420922B
:1401CC008A0088EF8093890081E08093880087E08093870085
:1401E0008FEF8093860087E0809385008FEF8093840087E079
:1401F400809383008FEF8093820087E0809381008FEF8093C2
:1402080080008AE280938B008AE180938A00089522242AB88B
:14021C002BB886E08093950087E689B92092900088E18AB940
:140230000895222420929A0020929B0086E080939D0087E6BB
:14024400809399002092980088E180939A000895222426B8D9
:1402580027B880E888B987E886B90895F89422242CBE209251
:14026C006D0052DF6CDF8DDFA9DFD0DFDCDFECDF222425BE43
:1402800020926A002ABE29BE81E087BF20927D007894089500
:1402940086E090E00E9441060E9446060E946F0608950000F5
:1402A800000000000000000000000000000000000000000042
:1402BC000000000000000000089564D2B8014427552703C0F8
:1402D000EADF4F5F5F4F46175707D0F34DD2089557D2B801D9
:1402E4004427552705C008EE13E0EBDF4F5F5F4F4617570790
:1402F800C0F33ED2089544D26901A801BA0102C0605170408B
:14030C008FE090E086179707CCF3AA24A3944AC085B38F70BE
:1403200085BB8FEF8BBB4A2D55274130E0E05E0769F0423071
:14033400E0E05E0759F04330E0E05E0749F04430E0E05E07DD
:1403480039F007C0AF9A05C0AE9A03C0AD9A01C0AC9A8A2D93
:14035C008430C8F496010E943C060E943C0600E110E0F4D128
:14037000F601E01BF10B82E091E00E945F0616013694279415
:1403840036942794369427943694279461018A2D843029F4EC
:1403980082E091E0FB010E945F068A2D833019F001E010E037
:1403AC0099DFA3948A2D853008F4B2CFE3D10895EBD1A801EF
:1403C000249704EB10E006D20E9405068A011695079569D2FD
:1403D4000E9405068DD38A010170107062D20E940506B1D228
:1403E8000E940A0600EB10E0F1D10E940506ACD20CEA10E0A1
:1403FC00EBD10E940506F5D2FE010083118322833383FE014D
:1404100000811181228133812496BFD1089599D1B9D12497D8
:1404240008EA10E0D5D10E940506FE01228433844484558492
:140438000E94190604EA10E0C9D10E9405067FD257D30E94AD
:14044C00250600EA10E0C0D10E940506FE012480358046803B
:1404600057800E94190617D32CF400EA10E0B2D10E942506BC
:140474000E943606DAD1A80124968DD1249608950CB9089571
:1404880081D164970CE910E0A1D1FE0104831583268337833B
:14049C0008E910E099D1FE01008B118B228B338B369A349BD1
:1404B000FECF0E941E0650D10E94300624B03324318220822C
:1404C4000E941E0647D180E291E01801280E391E45B055245F
:1404D800542C4424F10160807180640C751C718260820E94ED
:1404EC001E0634D10E943006A080B1800E941E062DD10E9444
:140500004D0615013594279435942794318220820E941E065B
:1405140021D10E943006008111814EDFFE01048715872687F6
:140528003787FE0124803580468057800E941906FE012088A4
:14053C003188428853880E94190606D2FE01008711872287ED
:140550003387FE0120883188428853880E941906FE01248470
:140564003584468457840E941906C4D20E940A0604E910E03F
:140578002DD10E9405068BD22CF404E910E026D10E942506A6
:14058C00FE0120803180428053800E94190604EA10E01AD1EC
:1405A0000E94050678D22CF004EA10E013D10E9425060E9403
:1405B400360633DF580115010E942B062BBC0ABD6496DAD051
:1405C800089528978CE890E0FE0108E010E0FA93EA939A93D1
:1405DC008A930ED166277727AA24BB24442755273BDE52DE07
:1405F000ADC022243324309201012092000144275527B49942
:1406040001C04860B79901C044602090630023FC01C042602F
:140618002090630024FC01C041608FEF93E09F838E839D83F5
:14062C008C839B838A8399838883809112019091130181304F
:14064000E0E09E0769F40E9446060E9479068233E0E09E07BB
:140654002CF00E946F0681E090E05C014130E0E05E0709F0A2
:1406680035C00E947E0609F02CC00E9453060E94410606DFB5
:14067C000E941E066BD00E944D06E0808FE090E02090140170
:14069000309015018215930534F42224332430921501209202
:1406A40014010E945306C0901401D0901501CC0CDD1CCC0CAE
:1406B800DD1CCC0CDD1CCC0CDD1CC80ED91EB601EC2C8FEF79
:1406CC0095E09983888313C08FEF93E09983888382E090E0C1
:1406E0000E944106288039800E942B062BBC288039802ABCBB
:1406F400EE246EEF70E02A803B800E942B0629BC2A803B80B1
:1407080028BC2C803D800E942B06209285002C803D8020926B
:14071C0084002E803F800E942B06209283002E803F802092B1
:1407300082000E947E0621F4AA24BB240E2DA2DE9B01009163
:14074400140110911501D9DD52CF289608950E940506089559
:140758000A921A928A939A93029FC001129F900D039F900D0C
:14076C008C0199918991199009900895E2E010C0E4E00EC0A5
:14078000E8E00CC0FA92EA92DA92CA92BA92AA927A936A936F
:140794005A934A930895E1E049915991E0FD089569917991E7
:1407A800E1FD0895A990B990E2FD0895C990D990E3FD089585
:1407BC00E990F990089500951095209530950F5F1F4F2F4F7C
:1407D0003F4F0895EA93FA930A92E02FF12FC895002D3196C4
:1407E400C895102D3196C895202D3196C895302D0990F99152
:1407F800E9910895AA93BA93EA93FA930A92AF81B885ED81CB
:14080C00FE810030010731F0C8950D92319601501040F7CFD6
:140820000990F991E991B991A99124960895A2D10FD0022FC9
:14083400132F87FD01C09FC1109501951F4F9BC197D106D086
:1408480087FF01C0BADF95C1BEE001C0BEE194D159F0B31BEC
:14085C0009F05AF488231AF010E008EBB5CF10E00EEBB2CFBB
:1408700010E00CEBAFCF3395DAF330E0B85052F4B85F322FA4
:14088400212F102F00E806C0012F122F20E0B850B830D0F7FB
:14089800BB2321F00E947406BA95E1F70895222717FD20956B
:1408AC00332727FD309560D101D061C18827332312F481DF66
:1408C0008095B02FB12BB22BB32B09F46FC1B6E103C0B395CA
:1408D4000E9474063323D9F7222349F4B850212F102F00E0D5
:1408E800F9CFBA95000F111F221FDAF73B2F81C1DA92EA9200
:1408FC00FA928A930E945906BA930895B991A99199914990CD
:14091000399029908991F990E990D99008952A843B844C84F2
:140924009D8508950E851F85288939890895EADF0F920FB68A
:1409380028960FBE0F900895DBDFF2DFECCF01D004CFFADF21
:14094C000DD0F1CF01D0FFCEF5DF07D0ECCF8A2F392F242D84
:14096000132D022D4AC1905836D19038D9F33038A1F3B32FA8
:14097400B91BB3F32AF031F402151305240510F41FD1F5CFA6
:14098800B83118F0222433244424B83028F0232C342C44244E
:14099C00B850F9CFBB2329F0469437942794BA95D9F7B82F1A
:1409B000BA2742F012D0B0F62795179507953F5F8BF6EDC0C8
:1409C4000ED009F4F1C008F4E2D022234AF20E946A06DBF780
:1409D800E2C0020D131D241D0895021913092409089501D07A
:1409EC00B2CEA8DF22D09FCFBA93DD24EE24FF24B8E102155D
:140A00001305240528F0021913092409089401C08894DD1CB3
:140A1400EE1CFF1C000F111F221FBA9571F70D2D1E2D2F2D91
:140A2800B991089522243324B0E24B2E91E4992309F13323AA
:140A3C0031F1CBD021F18A270894390BD3F046943794279423
:140A5000269517950795CEDF22231AF00E946A0673F0B02F3F
:140A6400B69548F000233AF411232AF4B1E00B0FBB271B1F91
:140A78002B1FBFC006C0BFE73B2F2B2B0FEF1FEF08950027A5
:140A8C001127222733278827089554DF01D04BCF02D0BB2361
:140AA0000895332382F0992342F0391740F029F40215130523
:140AB400240518F021F0B1E00895BFEF0895BB270895992338
:140AC800D2F73917B0F3B9F702151305240588F3A1F3F1CF87
:140ADC00BFE73B2F2B2B0FEF1FEF08950027112722273327F5
:140AF0008827089501D02DCE23DF0F92CF9203D0CF900F9005
:140B040016CF67D079F3903869F38A270894391F1BF30DD0A1
:140B18002F2D1E2D0D2D22232AF03A95CC0C001F111F221F52
:140B2C003F5FB3F264C0229DC02CD12C249DE02CF12C129D0D
:140B40000E948306039D0E948306139D0E946506049D0E94AB
:140B54006506239DD00CE11CFB1E149DD00CE11CFB1ECC20E1
:140B680022F48894DB1EEB1EFB1E08958A93BA930895B9913E
:140B7C0089910895832F8078220F331F305808942795303839
:140B900008951095209501951F4F2F4F0895BFE73B2F2B2BD5
:140BA400BFEF0B2F1B2F089500271127222733278827089520
:140BB800932F202E312E422EA82F08950E945906F7DF8991E5
:140BCC0039912991199109910895832FB0E8220F331F3B2781
:140BE000BB0F27958078A92FB0E8440C991F9B27BB0F4794A4
:140BF400A07830380895220FB0E8B327880FB79527953B2F24
:140C080008953A932A931A930A930895FE010083118322830F
:140C1C003383FE0120803180428053805A924A923A922A92D9
:140C300008955A924A923A922A9208952091000130910101B1
:140C440002E010E00895FE0100831183228333830895232CD0
:140C5800332427FC30940895F80180E291E0E80FF91F089535
:140C6C00FE0100811181228133810895369527953695279560
:140C8000089590931501809314010895222433243092130152
:140C9400209212010895F80188E191E0E80FF91F089580915A
:140CA800140190911501019608952A923A924A929A93AA93EA
:140CBC000895E80FF91F208020942BBA0895C00CD11CEB1EE0
:140CD000FB1E0895000F111F221F3150089530921701209230
:140CE400160108953695279517950795089580911601909193
:140CF80017010895C5018130E0E09E070895C10CDB1EEB1EEB
:040D0C00FB1E08952D
:00000001FF
