:040000000C946A00F2
:040040000C94AF006D
:14008C000000000000000000000080BFCDCC4C3E0000003FBF
:1400A00000E0FF440000803F00C07F44000000440080FF43E1
:1400B40000000040FFFFFF7F00000000008000003F065B4F0D
:1400C800666D7D077F6F777C395E7971CFEFD0E1CDBFDEBFD3
:1400DC00C058D0400AEA08830024E2E1F1E011E0EC32F107AA
:1400F00011F00192FBCF0083E2ECF0E0A0E0B1E010E0E43D5B
:14010400F10721F0C89531960D92F9CF6AD1FFCF22242BBA1F
:140118008FEF8ABB28BA80E687BB80EF85BB84BB8CE082BBEF
:14012C0088E081BB83EC83B982EF82B920926200209261009D
:1401400020926500209264000895222423BE20BE84E682BF31
:140154008CE981BF87E083BF08958A939A938FB78A9384E685
:1401680082BF0E9479060196909317018093160181E090E054
:14017C00909313018093120189918FBF999189911895222473
:140190002EBC88EF8DBD81E08CBD87E08BBD8FEF8ABD87E02B
:1401A40089BD8FEF88BD87E0809379008FEF8093780087E0DB
:1401B80087BD8FEF86BD82EA8FBD8AE18EBD0895222420922B
:1401CC008A0088EF8093890081E08093880087E08093870085
:1401E0008FEF8093860087E0809385008FEF8093840087E079
:1401F400809383008FEF8093820087E0809381008FEF8093C2
:1402080080008AE280938B008AE180938A00089522242AB88B
:14021C002BB886E08093950087E689B92092900088E18AB940
:140230000895222420929A0020929B0086E080939D0087E6BB
:14024400809399002092980088E180939A000895222426B8D9
:1402580027B880E888B987E886B90895F89422242CBE209251
:14026C006D0052DF6CDF8DDFA9DFD0DFDCDFECDF222425BE43
:1402800020926A002ABE29BE81E087BF20927D007894089500
:140294000E943B0630921B0120921A010E94970630921901AD
:1402A800209218010E946A06089500000000000000000000C8
:1402BC0000000000000000000000000000000000000000002E
:1402D000089569D2B8014427552703C0EADF4F5F5F4F46175D
:1402E4005707D0F352D208955CD2B8014427552705C008EE9B
:1402F80013E0EBDF4F5F5F4F46175707C0F343D2089549D29E
:14030C005901680102C00E943B068FE090E020901401309011
:14032000150182159305ACF361E04FC085B38F7085BB8FEFA0
:140334008BBB462F55274130E0E05E0769F04230E0E05E07F8
:1403480059F04330E0E05E0749F04430E0E05E0739F007C0FE
:14035C00AF9A05C0AE9A03C0AD9A01C0AC9A95013695279509
:1403700036952795369527953695279500E110E0F6D1F50156
:14038400E01BF10B82E091E00E944806150136942794369446
:14039800279436942794369427945101643031F4E0911401FB
:1403AC00F09115010E944806633029F482E091E0F6010E949A
:1403C000480601E010E092DF6395653008F4AECF8091180169
:1403D4009091190101969093190180931801D9D108952897D4
:1403E8008CE890E0FE0108E010E0FA93EA939A938A930BD215
:1403FC0066277727AA24BB24442755272DDF44DFA3C0222456
:140410003324309201012092000144275527B49901C048606D
:14042400B79901C044602090630023FC01C042602090630067
:1404380024FC01C041608FEF93E09F838E839D838C839B83BD
:14044C008A839983888380911201909113018130E0E09E07F9
:1404600079F4222433240E9497060E9479068233E0E09E0704
:140474002CF00E946A0681E090E05C014130E0E05E0709F089
:1404880028C00E948D0609F035C00E94540601960E947406A6
:14049C00C2D00E94240665D10E945E06E0800E9454068031A5
:1404B000E0E09E0714F00E943B060E9454060196C0901401F4
:1404C400D09015010E9459060E945906C80ED91EB601EC2C10
:1404D80011C08FEF93E09983888382E090E00E947406288091
:1404EC0039800E9436060E949206EE246EEF70E0288039800B
:140500000E9436060E9492062A803B800E94360629BC2A80FD
:140514003B8028BC2C803D800E943606209285002C803D804D
:14052800209284002E803F800E943606209283002E803F809C
:14053C00209282000E948D0621F4AA24BB240E2D0BD19B01CD
:140550008A01DBDE5CCF2896089527D1A801249704EB10E092
:1405640042D10E9410068A0116950795A5D10E941006C9D21D
:140578008A01017010709ED10E941006EDD10E94150600EB66
:14058C0010E02DD10E941006E8D10CEA10E027D10E94100666
:1405A00031D2FE010083118322833383FE010081118122811E
:1405B40033812496FBD00895D5D0F5D0249708EA10E011D174
:1405C8000E941006FE0122843384448455840E942B0604EAA9
:1405DC0010E005D10E941006BBD193D20E94300600EA10E0EA
:1405F000FCD00E941006FE0124803580468057800E942B06AB
:1406040053D22CF400EA10E0EED00E9430060E94420616D15C
:14061800A8012496C9D024960895BFD064970CE910E0DFD05D
:14062C00FE01048315832683378308E910E0D7D0FE01008B27
:14064000118B228B338B369A349BFECF0E9424068ED00E9467
:140654004E0624B03324318220820E94240685D084E291E0C6
:140668001801280E391E45B05524542C4424F10160807180BF
:14067C00640C751C718260820E94240672D00E944E06A08070
:14069000B1800E9424066BD00E945E061501359427943594B5
:1406A4002794318220820E9424065FD00E944E06008111812E
:1406B80050DFFE010487158726873787FE0124803580468050
:1406CC0057800E942B06FE0120883188428853880E942B0698
:1406E00044D1FE010087118722873387FE0120883188428846
:1406F40053880E942B06FE0124843584468457840E942B066C
:1407080002D20E94150604E910E06BD00E941006C9D12CF4C2
:14071C0004E910E064D00E943006FE012080318042805380FB
:140730000E942B0604EA10E058D00E941006B6D12CF004EA93
:1407440010E051D00E9430060E94420635DF580115010E94A9
:1407580036062BBC0ABD649618D008950CB908950E9410060A
:14076C0008950A921A928A939A93029FC001129F900D039FF8
:14078000900D8C0199918991199009900895E2E010C0E4E0C2
:140794000EC0E8E00CC0FA92EA92DA92CA92BA92AA927A938A
:1407A8006A935A934A930895E1E049915991E0FD08956991E0
:1407BC007991E1FD0895A990B990E2FD0895C990D990E3FD04
:1407D0000895E990F990089500951095209530950F5F1F4F49
:1407E4002F4F3F4F0895EA93FA930A92E02FF12FC895002DF9
:1407F8003196C895102D3196C895202D3196C895302D099001
:14080C00F991E9910895AA93BA93EA93FA930A92AF81B8859A
:14082000ED81FE810030010731F0C8950D923196015010401A
:14083400F7CF0990F991E991B991A99124960895A2D10FD020
:14084800022F132F87FD01C09FC1109501951F4F9BC197D117
:14085C0006D087FF01C0BADF95C1BEE001C0BEE194D159F0D0
:14087000B31B09F05AF488231AF010E008EBB5CF10E00EEB5A
:14088400B2CF10E00CEBAFCF3395DAF330E0B85052F4B85F70
:14089800322F212F102F00E806C0012F122F20E0B850B8304D
:1408AC00D0F7BB2321F00E947E06BA95E1F70895222717FD3B
:1408C0002095332727FD309560D101D061C18827332312F4FD
:1408D40081DF8095B02FB12BB22BB32B09F46FC1B6E103C09E
:1408E800B3950E947E063323D9F7222349F4B850212F102F4F
:1408FC0000E0F9CFBA95000F111F221FDAF73B2F81C1DA9288
:14091000EA92FA928A930E946406BA930895B991A99199910A
:140924004990399029908991F990E990D99008952A843B84D5
:140938004C849D8508950E851F85288939890895EADF0F926B
:14094C000FB628960FBE0F900895DBDFF2DFECCF01D004CF21
:14096000FADF0DD0F1CF01D0FFCEF5DF07D0ECCF8A2F392FE8
:14097400242D132D022D4AC1905836D19038D9F33038A1F325
:14098800B32FB91BB3F32AF031F402151305240510F41FD174
:14099C00F5CFB83118F0222433244424B83028F0232C342CDE
:1409B0004424B850F9CFBB2329F0469437942794BA95D9F785
:1409C400B82FBA2742F012D0B0F62795179507953F5F8BF67A
:1409D800EDC00ED009F4F1C008F4E2D022234AF20E946F068C
:1409EC00DBF7E2C0020D131D241D0895021913092409089565
:140A000001D0B2CEA8DF22D09FCFBA93DD24EE24FF24B8E18E
:140A140002151305240528F0021913092409089401C0889481
:140A2800DD1CEE1CFF1C000F111F221FBA9571F70D2D1E2DE0
:140A3C002F2DB991089522243324B0E24B2E91E4992309F190
:140A5000332331F1CBD021F18A270894390BD3F04694379474
:140A64002794269517950795CEDF22231AF00E946F0673F04A
:140A7800B02FB69548F000233AF411232AF4B1E00B0FBB27D8
:140A8C001B1F2B1FBFC006C0BFE73B2F2B2B0FEF1FEF08957E
:140AA00000271127222733278827089554DF01D04BCF02D004
:140AB400BB230895332382F0992342F0391740F029F4021549
:140AC8001305240518F021F0B1E00895BFEF0895BB270895C8
:140ADC009923D2F73917B0F3B9F702151305240588F3A1F377
:140AF000F1CFBFE73B2F2B2B0FEF1FEF08950027112722277B
:140B040033278827089501D02DCE23DF0F92CF9203D0CF9035
:140B18000F9016CF67D079F3903869F38A270894391F1BF3CB
:140B2C000DD02F2D1E2D0D2D22232AF03A95CC0C001F111FA2
:140B4000221F3F5FB3F264C0229DC02CD12C249DE02CF12C67
:140B5400129D0E948306039D0E948306139D0E948806049D67
:140B68000E948806239DD00CE11CFB1E149DD00CE11CFB1EF4
:140B7C00CC2022F48894DB1EEB1EFB1E08958A93BA93089588
:140B9000B99189910895832F8078220F331F30580894279543
:140BA400303808951095209501951F4F2F4F0895BFE73B2FAF
:140BB8002B2BBFEF0B2F1B2F08950027112722273327882753
:140BCC000895932F202E312E422EA82F08950E946406F7DF43
:140BE000899139912991199109910895832FB0E8220F331FB5
:140BF4003B27BB0F27958078A92FB0E8440C991F9B27BB0F09
:140C08004794A07830380895220FB0E8B327880FB79527959E
:140C1C003B2F08953A932A931A930A930895FE010083118336
:140C300022833383FE0120803180428053805A924A923A92DC
:140C44002A920895209100013091010102E010E008955A9273
:140C58004A923A922A920895FE010083118322833383089579
:140C6C00232C332427FC309408952224332430921501209223
:140C800014010895FE0100811181228133810895E80FF91F99
:140C9400208020942BBA0895F80184E291E0E80FF91F0895FA
:140CA80080911401909115010895CC0CDD1CCC0CDD1C0895FF
:140CBC00F8018CE191E0E80FF91F08952A923A924A929A9310
:140CD000AA93089530921701209216010895000F111F221F76
:140CE400315008959093150180931401089580911601909197
:140CF8001701089536952795179507950895C10CDB1EEB1EF8
:140D0C00FB1E0895C00CD11CEB1EFB1E0895C5018130E0E06E
:140D20009E0708952BBC288039802ABC08953092130120922A
:040D3400120108950B
:00000001FF
