:040000000C946A00F2
:040040000C94AF006D
:14008C000000000000000000000080BFCDCC4C3E0000003FBF
:1400A00000E0FF440000803F00C07F44000000440080FF43E1
:1400B40000000040FFFFFF7F00000000008000003F065B4F0D
:1400C800666D7D077F6F777C395E7971CFEFD0E1CDBFDEBFD3
:1400DC00C058D0400AEA08830024E2E1F1E011E0EA32F107AC
:1400F00011F00192FBCF0083E2ECF0E0A0E0B1E010E0E43D5B
:14010400F10721F0C89531960D92F9CF3CD2FFCF22242BBA4C
:140118008FEF8ABB28BA80E687BB80EF85BB84BB8CE082BBEF
:14012C0088E081BB83EC83B982EF82B920926200209261009D
:1401400020926500209264000895222423BE20BE83E882BF30
:140154008DE781BF85E083BF08958A939A938FB78A9383E887
:1401680082BF809118019091190101969093190180931801DD
:14017C000E948F060196909317018093160181E090E0909348
:1401900013018093120189918FBF99918991189522242EBC98
:1401A40088EF8DBD81E08CBD87E08BBD8FEF8ABD87E089BDBB
:1401B8008FEF88BD87E0809379008FEF8093780087E087BDC9
:1401CC008FEF86BD82EA8FBD8AE18EBD0895222420928A00D1
:1401E00088EF8093890081E08093880087E0809387008FEF7D
:1401F4008093860087E0809385008FEF8093840087E08093D0
:1402080083008FEF8093820087E0809381008FEF8093800040
:14021C008AE280938B008AE180938A00089522242AB82BB814
:1402300086E08093950087E689B92092900088E18AB9089572
:14024400222420929A0020929B0086E080939D0087E6809331
:1402580099002092980088E180939A000895222426B827B8F9
:14026C0080E888B987E886B90895F89422242CBE20926D00AF
:1402800049DF63DF8DDFA9DFD0DFDCDFECDF222425BE2092FC
:140294006A002ABE29BE81E087BF20927D00789408950E94FC
:1402A80046060E9480060E947B060E94940608957DD2690119
:1402BC00B801A884B984A60102C0405150408FE090E0841708
:1402D0009507CCF385B38F7085BB8FEF8BBB6130E0E07E07AE
:1402E40069F06230E0E07E07A9F06330E0E07E07C1F0643020
:1402F800E0E07E07B9F017C0AF9A20E130E085010ED29801D4
:14030C0000E110E03BD2A01AB10A0BC0AE9A20E130E08501E0
:1403200002D2580104C025B225BA01C0AC9A6330E0E07E0743
:1403340028F482E091E0F5010E945F066430E0E07E0729F4D3
:1403480082E091E0FA010E945F062CD2089534D2A8012497C7
:14035C0004EB10E04FD20E941B068A0116950795B2D20E94D2
:140370001B06D6D38A0101701070ABD20E941B06FAD20E9485
:14038400270600EB10E03AD20E941B06F5D20CEA10E034D2DB
:140398000E941B063ED3FE010083118322833383FE0100818C
:1403AC00118122813381249608D20895AFD102D2249708EA22
:1403C00010E01ED20E941B06FE0122843384448455840E94E7
:1403D400360604EA10E012D20E941B06C8D2A0D30E943B0664
:1403E80000EA10E009D20E941B06FE01248035804680578094
:1403FC000E94360660D32CF400EA10E0FBD10E943B060E9491
:14041000590623D2A8012496D6D1249608950CB9089500279A
:140424001127B49901C00860B79901C004602090630023FC6F
:1404380001C002602090630024FC01C001600895B7D1649718
:14044C000CE910E0D7D1FE01048315832683378308E910E0AD
:14046000CFD1FE01008B118B228B338B369A349BFECF0E9449
:14047400200688D10E94530624B03324318220820E942006B2
:140488007FD182E291E01801280E391E45B05524542C44243F
:14049C00F10160807180640C751C718260820E9420066CD1AE
:1404B0000E945306A080B1800E94200665D10E944D061501E3
:1404C4003594279435942794318220820E94200659D10E9433
:1404D8005306008111813BDFFE010487158726873787FE01FA
:1404EC0024803580468057800E943606FE01208831884288FE
:1405000053880E9436063CD2FE010087118722873387FE01A0
:1405140020883188428853880E943606FE01248435844684C5
:1405280057840E943606FAD20E94270604E910E063D10E94B8
:14053C001B06C1D22CF404E910E05CD10E943B06FE0120804B
:140550003180428053800E94360604EA10E050D10E941B06B1
:14056400AED22CF004EA10E049D10E943B060E94590620DF0C
:14057800580115010E9441062BBC0ABD649610D108952A9730
:14058C008CE890E0FE01329608E010E0FA93EA939A938A9384
:1405A00043D1AA24BB24442755276627772763DEB0C022247D
:1405B4003324309201012092000131DFB8018FEF93E099878B
:1405C80088879F838E839D838C839B838A838091120190913E
:1405DC0013018130E0E09E07E9F4222433240E94800684E0DB
:1405F00090E020901801309019018215930524F42224332400
:140604000E947B060E948F06843FE1E09E0734F0222433249E
:140618000E94940641E050E06130E0E07E0709F037C041300A
:14062C00E0E05E0709F040C00E94650690931501809314012E
:1406400003DF0E942006A0D00E944D06E0808FE090E02090A8
:140654001401309015018215930514F40E9446060E942006BA
:140668008FD00E944D06A080B1800E946506C0901401D09007
:14067C001501CC0CDD1CCC0CDD1CCC0CDD1CCC0CDD1CC80E3A
:14069000D91E5601EC2C0EC08FEF93E09B838A830E94460618
:1406A4001C010E9441062BBC8ABDEE24AA24BB242C803D80E6
:1406B8000E94410629BC2C803D8028BC2E803F800E944106BD
:1406CC00209285002E803F8020928400288439840E944106EE
:1406E0002092830028843984209282004130E0E05E0721F489
:1406F400442755270E2D91DEB982A88220911401309115015F
:140708000091180110911901D3DD4FCF2A9608950E941B068A
:14071C0008956894DA92D12E04C0E894DA92D12ED32617FF0B
:1407300002C00E94990637FF04C0309520952F5F3F4F09D049
:14074400D7FE02C00E949906D9900895689401C0E894EA920E
:14075800FA928A93EE24FF2480E1000F111FEE1CFF1CE216F2
:14076C00F30618F0E21AF30A03958A95A1F716F40E2D1F2D9F
:140780008991F990E99008950A921A928A939A93029FC001B8
:14079400129F900D039F900D8C019991899119900990089514
:1407A800E4E00EC0E8E00CC0FA92EA92DA92CA92BA92AA92BF
:1407BC007A936A935A934A930895E1E049915991E0FD0895B9
:1407D00069917991E1FD0895A990B990E2FD0895C990D990D6
:1407E400E3FD0895E990F990089500951095209530950F5FC3
:1407F8001F4F2F4F3F4F0895EA93FA930A92E02FF12FC895A4
:14080C00002D3196C895102D3196C895202D3196C895302D58
:140820000990F991E9910895AA93BA93EA93FA930A92AF812A
:14083400B885ED81FE810030010731F0C8950D923196015019
:140848001040F7CF0990F991E991B991A99124960895A2D19B
:14085C000FD0022F132F87FD01C09FC1109501951F4F9BC18C
:1408700097D106D087FF01C0BADF95C1BEE001C0BEE194D19D
:1408840059F0B31B09F05AF488231AF010E008EBB5CF10E0F6
:140898000EEBB2CF10E00CEBAFCF3395DAF330E0B85052F47A
:1408AC00B85F322F212F102F00E806C0012F122F20E0B8500A
:1408C000B830D0F7BB2321F00E947106BA95E1F70895222760
:1408D40017FD2095332727FD309560D101D061C188273323DB
:1408E80012F481DF8095B02FB12BB22BB32B09F46FC1B6E147
:1408FC0003C0B3950E9471063323D9F7222349F4B850212FC4
:14091000102F00E0F9CFBA95000F111F221FDAF73B2F81C1A0
:14092400DA92EA92FA928A930E946B06BA930895B991A991AD
:1409380099914990399029908991F990E990D99008952A8456
:14094C003B844C849D8508950E851F85288939890895EADF39
:140960000F920FB628960FBE0F900895DBDFF2DFECCF01D03F
:14097400D1CEFADF0DD0F1CF01D0CCCEF5DF07D0ECCF8A2FD0
:14098800392F242D132D022D4AC1905836D19038D9F330383D
:14099C00A1F3B32FB91BB3F32AF031F402151305240510F4BC
:1409B0001FD1F5CFB83118F0222433244424B83028F0232C3A
:1409C400342C4424B850F9CFBB2329F0469437942794BA95E1
:1409D800D9F7B82FBA2742F012D0B0F62795179507953F5F17
:1409EC008BF6EDC00ED009F4F1C008F4E2D022234AF20E946C
:140A00007606DBF7E2C0020D131D241D089502191309240971
:140A1400089501D07FCEA8DF22D09FCFBA93DD24EE24FF24A9
:140A2800B8E102151305240528F0021913092409089401C0F0
:140A3C008894DD1CEE1CFF1C000F111F221FBA9571F70D2DFB
:140A50001E2D2F2DB991089522243324B0E24B2E91E499232B
:140A640009F1332331F1CBD021F18A270894390BD3F0469431
:140A780037942794269517950795CEDF22231AF00E947606C7
:140A8C0073F0B02FB69548F000233AF411232AF4B1E00B0F43
:140AA000BB271B1F2B1FBFC006C0BFE73B2F2B2B0FEF1FEF25
:140AB400089500271127222733278827089554DF01D04BCF25
:140AC80002D0BB230895332382F0992342F0391740F029F47A
:140ADC0002151305240518F021F0B1E00895BFEF0895BB273A
:140AF00008959923D2F73917B0F3B9F702151305240588F35A
:140B0400A1F3F1CFBFE73B2F2B2B0FEF1FEF0895002711271B
:140B1800222733278827089501D0FACD23DF0F92CF9203D06B
:140B2C00CF900F9016CF67D079F3903869F38A270894391F66
:140B40001BF30DD02F2D1E2D0D2D22232AF03A95CC0C001FB0
:140B5400111F221F3F5FB3F264C0229DC02CD12C249DE02C40
:140B6800F12C129D0E948506039D0E948506139D0E948A06D1
:140B7C00049D0E948A06239DD00CE11CFB1E149DD00CE11C56
:140B9000FB1ECC2022F48894DB1EEB1EFB1E08958A93BA93F8
:140BA4000895B99189910895832F8078220F331F305808944E
:140BB8002795303808951095209501951F4F2F4F0895BFE749
:140BCC003B2F2B2BBFEF0B2F1B2F0895002711272227332784
:140BE00088270895932F202E312E422EA82F08950E946B064F
:140BF400F7DF899139912991199109910895832FB0E8220F1D
:140C0800331F3B27BB0F27958078A92FB0E8440C991F9B276C
:140C1C00BB0F4794A07830380895220FB0E8B327880FB7957C
:140C300027953B2F08953A932A931A930A93089520910001CA
:140C44003091010102E010E00895FE010083118322833383F9
:140C5800FE0120803180428053805A924A923A922A920895B6
:140C6C005A924A923A922A920895FE01008311832283338316
:140C80000895232C332427FC30940895222433243092150124
:140C9400209214010895F8018AE191E0E80FF91F0895F8016E
:140CA80082E291E0E80FF91F0895FE0100811181228133814E
:140CBC000895E80FF91F208020942BBA08958091140190915B
:140CD0001501019608952A923A924A929A93AA930895369590
:140CE4002795179507950895000F111F221F315008953092FB
:140CF800190120921801089530921301209212010895C10C61
:140D0C00DB1EEB1EFB1E0895C00CD11CEB1EFB1E0895809192
:140D20001601909117010895309217012092160108951095ED
:080D340000950F5F1F4F0895A9
:00000001FF
