:040000000C946300F9
:040040000C94AB0071
:14008C00000080BFCDCC4C3E0000003F00E0FF440000803FDD
:1400A00000C07F44000000440080FF4300003F065B4F666D01
:1400B4007D077F6F777C395E79710000000000000000CFEF94
:1400C800D0E1CDBFDEBFC058D0400AEA08830024EAE1F1E0E3
:1400DC0011E0E233F10711F00192FBCF0083ECEAF0E0A0E00B
:1400F000B1E010E000E00BBFE63CF10721F0C89531960D92E3
:14010400F9CF0E940E03FFCF22242BBA8FEF8ABB28BA80E668
:1401180087BB80EF85BB84BB8CE082BB88E081BB83EC83B9AB
:14012C0082EF82B920926200209261002092650020926400BF
:140140000895222423BE20BE83E882BF8DE781BF85E083BF02
:1401540008958A939A938FB78A9383E882BF8091200190914E
:1401680021010196909321018093200180911E0190911F01E0
:14017C00019690931F0180931E0181E090E090931B01809340
:140190001A0189918FBF99918991189522242EBC88EF8DBDF6
:1401A40081E08CBD87E08BBD8FEF8ABD87E089BD8FEF88BDB9
:1401B80087E0809379008FEF8093780087E087BD8FEF86BDCB
:1401CC0082EA8FBD8AE18EBD0895222420928A0088EF809308
:1401E000890081E08093880087E0809387008FEF809386006E
:1401F40087E0809385008FEF8093840087E0809383008FEF68
:140208008093820087E0809381008FEF809380008AE28093C2
:14021C008B008AE180938A00089522242AB82BB886E080931A
:14023000950087E689B92092900088E18AB9089522242092F3
:140244009A0020929B0086E080939D0087E6809399002092DE
:14025800980088E180939A000895222426B880E487B980E817
:14026C0088B987E886B90895F89422242CBE20926D0046DFF2
:1402800060DF8CDFA8DFCFDFDBDFEBDF222425BE20926A00C2
:140294002ABE29BE81E087BF20927D0078940895222433246B
:1402A80030921D0120921C0130921B0120921A013092210104
:1402BC002092200130921F0120921E0108950E946904690192
:1402D000B801EA84FB845701A60102C0405150408FE090E0B3
:1402E40084179507CCF385B38F7085BB8FEF8BBB6130E0E084
:1402F8007E0769F06230E0E07E07C1F06330E0E07E07E1F0E3
:14030C006430E0E07E07D9F01BC0AF9A20E130E085010E94DE
:14032000040480E190E098018C010E944E04A01AB10A0CC095
:14033400AE9A20E130E085010E940404580104C025B225BA59
:1403480001C0AC9A6330E0E07E0740F482E091E0F501E80FCE
:14035C00F91F208020942BBA6430E0E07E0741F482E091E05B
:14037000FA01E80FF91F208020942BBA0C945E04AA92BA92AC
:140384005801249785010E945405088319832A833B83288096
:1403980039804A805B8008EA10E00E943A043A932A931A93FA
:1403AC000A93810192010E9417051801290104EA10E00E940A
:1403C0003A043A932A931A930A93810192010E94810508834F
:1403D40019832A833B83088119812A813B812496B990A99048
:1403E80008950E94FB03AA92BA92249700EA10E00E943A04C7
:1403FC00180129016E807F80888499840CE910E00E943A04CF
:140410003A932A931A930A93830194010E94FF048101920131
:140424000E94FB06088319832A833B83CE0108E910E00E943D
:140438003A049A938A930E94130744F408E910E00E943A0473
:14044C00088319832A833B83088119812A813B810E942205B7
:1404600058012496B990A990249608950CB9089500271127DB
:14047400B49901C00860B79901C004602090630023FC01C096
:1404880002602090630024FC01C001600895AA92BA92649789
:14049C0004E910E00E943A040C831D832E833F8300E910E014
:1404B0000E943A04088B198B2A8B3B8B369A349BFECF8AE2CE
:1404C40091E0E0910001F0910101EE0FFF1FE80FF91F24B0C0
:1404D8003324318220822090000130900101220C331C280E3E
:1404EC00391E310125B03324322C2224F30140805180420CD0
:14050000531C51824082E0910001F0910101EE0FFF1FE80FDC
:14051400F91FA080B18082E291E0E0910001F0910101EE0FA3
:14052800FF1FE80FF91F15013594279435942794318220821F
:14053C008AE291E0E0910001F0910101EE0FFF1FE80FF91FAF
:140550000081118115DF0C871D872E873F870C811D812E8104
:140564003F81CE010C969A938A930E940D05088719872A8774
:140578003B87088919892A893B89CE0108969A938A930E94AA
:14058C00F106088319832A833B83288039804A805B800CE8D8
:1405A00010E00E943A043A932A931A930A93810192010E94EC
:1405B4001E0744F40CE810E00E943A04088319832A833B8380
:1405C800288039804A805B800CE910E00E943A043A932A93CA
:1405DC001A930A93810192010E941E0744F00CE910E00E942A
:1405F0003A04088319832A833B83088119812A813B81F3DECC
:1406040058011501232C332427FC30942BBC0ABD6496B990F5
:14061800A99008952A9782E191E0FE01329608E010E0FA9337
:14062C00EA939A938A930E947D04AA24BB24442755276627AF
:14064000772718DED5C02224332430920101209200010EDF7C
:14065400B8018FEF93E0998788879F838E839D838C839B8339
:140668008A8380911A0190911B018130E0E09E0729F522248E
:14067C00332430921B0120921A0184E090E020902001309003
:1406900021018215930534F422243324309221012092200189
:1406A40080911E0190911F01843FE1E09E0744F022243324D7
:1406B80030921F0120921E0141E050E06130E0E07E0709F05B
:1406CC0048C04130E0E05E0709F057C080911C0190911D01FF
:1406E000019690931D0180931C01D5DE82E291E0E091000104
:1406F400F0910101EE0FFF1FE80FF91FC080D1808FE090E0D5
:1407080020901C0130901D018215930534F42224332430927C
:14071C001D0120921C0182E291E0E0910001F0910101EE0F15
:14073000FF1FE80FF91F20901C0130901D01C1010196710112
:14074400EE0CFF1CEE0CFF1CEE0CFF1CEE0CFF1CE80EF91E40
:140758005701CE2C14C08FEF93E09B838A83222433243092EC
:14076C001D0120921C011C01232C332427FC30942BBC8ABDB4
:14078000CC24AA24BB242C803D80232C332427FC309429BCED
:140794002C803D8028BC2E803F80232C332427FC3094209258
:1407A80085002E803F802092840028843984232C332427FCE3
:1407BC0030942092830028843984209282004130E0E05E07FD
:1407D00021F4442755270C2D49DEB982A88220911C013091C5
:1407E4001D0100912001109121016DDD2ACF2A9608953A9301
:1407F8002A931A930A9308956894DA92D12E04C0E894DA9236
:14080C00D12ED32617FF04C0109500950F5F1F4F37FF04C0F6
:14082000309520952F5F3F4F0E942104D7FE04C01095009594
:140834000F5F1F4FD9900895689401C0E894EA92FA928A9370
:14084800EE24FF2480E1000F111FEE1CFF1CE216F30618F0A9
:14085C00E21AF30A03958A95A1F716F40E2D1F2D8991F9900C
:14087000E9900895EA93FA930A92E02FF12FD895002D319628
:14088400D895102D3196D895202D3196D895302D0990F99181
:14089800E99108950A921A928A939A93029FC001129F900DF3
:1408AC00039F900D8C0199918991199009900895A990B990C7
:1408C000C990D990E990F990499159916991799108957A93EE
:1408D4006A935A934A93FA92EA92DA92CA92BA92AA92089554
:1408E80000951095209530950F5F1F4F2F4F3F4F0895AA9386
:1408FC00BA93EA93FA930A92AF81B885ED81FE810030010763
:1409100029F001900D9201501040F8CF0990F991E991B9913B
:14092400A99124960895689401C0E8940E9480060E94120613
:1409380009F448C0E62CD52CC42CB32EA22E912E802E008104
:14094C001181228133810E94120609F444C0842D952D8C19DB
:140960009D09B9F072F49095809501964C2C5D2C8831B8F596
:1409740035952795179507950197D1F708C0883118F5B5946A
:14098800A794979487940197D1F766242EF0080D191D2A1D40
:14099C003B1D09C0801A910AA20AB30A082D192D2A2D3B2D4E
:1409B000332322F40E94740480E8682E0E943B0602C00E9468
:1409C40070060E948F0608950081118122813381C6F70E940C
:1409D8001A06A9F380E83827F2CF082D192D2A2D3B2D4C2C15
:1409EC005D2C6E2C33233AF70E94740480E8682EE2CFFA93F7
:140A0000EA93EC2FFD2F32960E949704E991F9913B832A83AA
:140A1400198308830895FA93EA93EA81FB810E949504E99164
:140A2800F99122960895FA93EA93EC2FFD2F32960E94950487
:140A3C00E991F991249608954A925A926A928A930E942206A0
:140A500011F15520E2F08FE14816C0F487E14816D1F058F4F4
:140A6400419489EE481A05C035952795179507954A94D1F797
:140A78000EC087E1481A000F111F221F331F4A94D1F705C095
:140A8C003FE7232F132F032F04C0662011F00E9474048991EB
:140AA0006990599049900895689401C0E8942227332746F0D8
:140AB40017FD209517FD309503C0689401C0E8944A925A92C8
:140AC8006A928A9387E1482E5524662436F0332322F40E94EC
:140ADC00740480E8682E0E943B06899169905990499008953B
:140AF000FA93EA93EA81FB8127D0E991F99122960895FA9324
:140B0400EA93EC2FFD2F32961DD0E991F99124960895FA937C
:140B1800EA93EA81FB8114D0E991F991398328831A930A93CC
:140B2C000895FA93EA93EC2FFD2F329607D0E991F9913B8366
:140B40002A831983088308950A921A922A923A920E94800638
:140B54003A932A931A930A9300811181228133810E94220685
:140B680009F457C0E62CD52CC42CB32EA22E912E802E0991AA
:140B7C001991299139910E942206A1F16E244C185D0880E818
:140B9000481653060CF033C081E848168FEF58060CF436C012
:140BA40080E23324232E122E012E302F222711270027269403
:140BB8001794079437952795000F111F221F331F001C111C40
:140BCC00221C331C28F0081819082A083B0804C0080C191CAD
:140BE0002A1C3B1C0AF001608A9551F70E943B060E948F0688
:140BF400399029901990099008950FEF102F2FE73FE766208D
:140C080099F30E947404F0CF0027102F202F302FEBCF09910B
:140C1C00199129913991EDCF0FD029F0662011F00E94740441
:140C300098940895002329F4112319F4222309F43323089531
:140C4400F7DF99F08A93632E80E86822220F331F432E8FE733
:140C5800481A55248827580A269530E8232B332789919894DB
:140C6C0008954424552466240895DEDF09F40895AA93BA93EE
:140C8000D2019A938A938EE790E0332349F03695279517959C
:140C94000795A817B907CCF41196F5CF8095909501962223F0
:140CA800BAF0000F111F221FA817B90714F01197F6CF0027F7
:140CBC00112722273327899199912D01B991A991089533275C
:140CD0000FEF102F2FE7322F899199912D0102C0AA93BA939E
:140CE400A7DF49F0D201A158BF4F2D01342D220F369527951C
:140CF8003629B991A99108954A925A926A927A928A929A9250
:140D0C00AA92BA92CA92DA92EA92FA928A939A93089599916A
:140D20008991F990E990D990C990B990A99099908990799014
:140D340069905990499008950E948006AA93BA930E942206D7
:140D4800E1F1E62CD52CC42CB32EA22E912E802E0081118191
:140D5C00228133810E94220671F16E244C0C5D1C80E84816D7
:140D7000530664F581E848168FEF58066CF1A29EB12DA02DD2
:140D8400919E912D802DA09E800D911DA31FB31F829E800D07
:140D9800911DA31FB31F929E900DA11DB31FA19E900DA11D0E
:140DAC00B31F2B2F1A2F092F880F001F111F221F331F0E946B
:140DC0003B06B991A9910E948F0608950FEF102F2FE78FE7BD
:140DD400482EF5CF0027102F202F302FF0CFFA93EA93EA8189
:140DE800FB810E949E06E991F99122960895FA93EA93EC2FB7
:140DFC00FD2F32960E949E06E991F991249608950E94950413
:140E100033233AF00E941A0611F001E00895002708950FEF4B
:140E24000895FA93EA93EA81FB810E940607E991F9912296C1
:140E380000230895FA93EA93EC2FFD2F32960E940607E991A4
:080E4C00F9912496002308959A
:00000001FF
