:040000000C94590003
:040040000C94AF006D
:040048000C9479009B
:14008C000000000000000000000000003F065B4F666D7D071A
:1400A0007F6F777C395E797100000000000000000000CFEF2C
:1400B400D0E1CDBFDEBFC058D0400AEA08830024EEE1F1E0F3
:1400C80011E0E632F10711F00192FBCF0083E4E9F0E0A0E025
:1400DC00B1E010E0E23BF10721F0C89531960D92F9CFC3D04B
:1400F000FFCF2A923A922FB62A922CB0332430921D01209240
:140104001C0129902FBE3990299018950CB9089522242BBA68
:140118008FEF8ABB28BA80E687BB80EF85BB84BB8CE082BBEF
:14012C0088E081BB83EC83B982EF82B920926200209261009D
:1401400020926500209264000895222423BE20BE84E682BF31
:140154008CE981BF87E083BF08958A938FB78A9384E682BF71
:1401680089918FBF8991189522242EBC88EF8DBD81E08CBDB9
:14017C0087E08BBD8FEF8ABD87E089BD8FEF88BD87E0809311
:1401900079008FEF8093780087E087BD8FEF86BD82EA8FBDB5
:1401A4008AE18EBD0895222420928A0088EF8093890081E0FE
:1401B8008093880087E0809387008FEF8093860087E0809306
:1401CC0085008FEF8093840087E0809383008FEF8093820075
:1401E00087E0809381008FEF809380008AE280938B008AE18A
:1401F40080938A00089522242AB82BB886E08093950087E637
:1402080089B92092900088E98AB90895222420929A002092C9
:14021C009B0086E080939D0087E6809399002092980088E151
:1402300080939A000895222426B827B880E888B987E886B916
:140244000895F89422242CBE20926D0061DF7BDF8DDFA9DFA0
:14025800D0DFDCDFECDF222425BE20926A002ABE29BE81E0E8
:14026C0087BF20927D007894089528978CE890E0FE0108E0D6
:1402800010E0FA93EA939A938A93CCD044275527DADF07C023
:1402940040911C0100911C0110911D0103D0F8CF2896089506
:1402A800A2D0580161E031C00E944102462F55274130E0E03E
:1402BC005E0769F04230E0E05E0759F04330E0E05E0749F0BF
:1402D0004430E0E05E0739F007C0AF9A05C0AE9A03C0AD9A31
:1402E40001C0AC9A95010E942B023695279500E110E063D00F
:1402F800F5010E94370215010E9432020E94320251010AEF14
:14030C0010E03AD06395633008F4CCCF64D008956AD0A8010D
:1403200064E00E94410277276130E0E07E0769F06230E0E081
:140334007E0759F06330E0E07E0749F06430E0E07E0739F0D4
:1403480007C0AF9A05C0AE9A03C0AD9A01C0AC9A9A0136950D
:14035C0027950E942B0200E110E02BD0FA010E9437021A0145
:140370000E9432020E943202A1010AEF10E002D02ED00895D5
:1403840036D0B8014427552703C007D04F5F5F4F461757070E
:14039800D0F321D00895000000000000000000000000000000
:1403AC000000000000000000000000000000000008950A9204
:1403C0001A928A939A93029FC001129F900D039F900D8C01B7
:1403D40099918991199009900895E2E00EC0E4E00CC0FA9246
:1403E800EA92DA92CA92BA92AA927A936A935A934A930895C4
:1403FC00E1E049915991E0FD089569917991E1FD0895A99036
:14041000B990E2FD0895C990D990E3FD0895E990F990089535
:14042400AA93BA93EA93FA930A92AF81B885ED81FE8100300A
:14043800010731F0C8950D92319601501040F7CF0990F9913A
:14044C00E991B991A99124960895369527953695279536956E
:140460002795089536942794369427940895E01BF10B84E02D
:1404740091E0E80FF91F208020942BBA089585B38F7085BBA7
:060488008FEF8BBB08950D
:00000001FF
